:020000040800F2
:100000003824002029030008EB340008CD2900081B
:10001000E7340008E11D00087955000800000000E1
:100020000000000000000000000000002B4200085B
:100030005120000800000000BF0200080948000825
:100040004303000843030008430300084303000878
:100050004303000843030008430300084303000868
:10006000430300084303000811220008430300086B
:100070004303000843030008430300084303000848
:100080004303000843030008430300084303000838
:100090004303000843030008430300084303000828
:1000A0004303000843030008430300084303000818
:1000B00043030008154900083549000843030008B8
:1000C00043030008430300084303000843030008F8
:1000D00043030008E5500008C1510008430300082D
:1000E00043030008430300084303000843030008D8
:1000F00043030008430300084303000843030008C8
:1001000043030008430300084303000843030008B7
:1001100043030008430300084303000843030008A7
:100120004303000843030008430300084303000897
:1001300000F002F800F07DF80AA090E8000C82447C
:100140008344AAF10107DA4501D100F072F8AFF259
:10015000090EBAE80F0013F0010F18BFFB1A43F0A5
:100160000103184720F1000040F100000A444FF05D
:10017000000C10F8013B13F0070408BF10F8014B06
:100180001D1108BF10F8015B641E05D010F8016B4B
:10019000641E01F8016BF9D113F0080F1EBF10F8AF
:1001A000014BAD1C0C1B09D16D1E58BF01F801CBD2
:1001B000FAD505E014F8016B01F8016B6D1EF9D555
:1001C0009142D6D37047000000230024002500266A
:1001D000103A28BF78C1FBD8520728BF30C148BFAA
:1001E0000B60704766290EF03F8565290EF03C854F
:1001F000642900F08181782900F0BA81732900F028
:100200004287002070471FB59DE8030000F064FCA2
:1002100000F042FF0400002000210DF00FFE401C02
:100220006060002000210DF01FFEE0601FBD10B5D2
:1002300010BD01F04EF81146FFF7E5FF08F0A6FEED
:1002400001F06CF803B4FFF7F2FF03BC05F021FCEA
:10025000EFF30980704780F309887047EFF3088057
:10026000704780F30888704740BA7047C0BA70473B
:10027000EFF3108072B6704780F310887047224CFD
:10028000224D25604FF0000484F30988204C4FF084
:10029000010525701F4C4FF08055256062B6FEE7C2
:1002A00030B41C4C4FF08055256030BC704730B4E2
:1002B000184C4FF08055256030BC704700BF72B6B7
:1002C000EFF3098028B1203880E8F00F124909685F
:1002D0000860124812490A7802700F4811490A68EA
:1002E0000260106890E8F00F203080F309884EF02B
:1002F000040E62B67047B0FA80F0704790FAA0F032
:100300004FEA10407047000020ED00E00000FFFFC2
:100310001801002004ED00E0240100201C01002051
:100320002001002028010020094880470948004793
:10033000FEE7FEE7FEE7FEE7FEE7FEE7FEE7FEE795
:10034000FEE7FEE704480549034A054B70470000F5
:10035000B548000831010008382200203824002068
:1003600038220020704770B5064600F099FB0568FA
:1003700006F10B0020F00704B4429CBF002070BDC2
:100380002B466A68BAB11068A04210D304F1080184
:1003900088423CBF5068586007D3516810194160CB
:1003A0001168091B016058601460101D70BD134670
:1003B0005268002AE7D12146284600F079FB002840
:1003C000DED170BD70B50446051F00F069FB006802
:1003D000002C14BF446870BD002C18BFAC423CBF59
:1003E00020466468F8D301680A18AA4218BF45601D
:1003F00003D12A6805461144016028684119A142C9
:100400001CBF6C6070BD6168696021680844286029
:1004100070BD10B5044600F03BFB0068005DC006EF
:1004200002D504F1200010BD204610BD0FB41CB54C
:10043000084B06AA7B4469460090059800F0F9FD38
:1004400004460020694600F007FE20461CBC5DF80B
:1004500014FB0000210C000070B50446856900689B
:10046000C10601D5302600E02026C00707D070BDA8
:10047000D4E9012130469047206A401C20626D1E5D
:10048000F6D570BD70B5044685690078C00707D100
:1004900070BDD4E9012120209047206A401C2062D1
:1004A0006D1EF6D570BD70B50C460546012A05D007
:1004B0002878800600D5EA69002302E0012305E0E0
:1004C0005B1C934202D2E05C0028F9D1A869E618CF
:1004D000C01AA861286A184428622846FFF7BCFFA2
:1004E00004E0D5E9012114F8010B9047B442F8D398
:1004F0002846FFF7C7FF70BD2DE9F04106460024EE
:1005000010687529314616A510D0AFF30080002879
:1005100002DA404213A507E031688A0701D512A527
:1005200002E0490704D511A5012401E0AFF30080E2
:1005300000210A2206F1240709E0B0FBF2FCB0FB1F
:10054000F2F302FB1C00303078541846491C002896
:10055000F3D123462A463046BDE8F04100F0FDBA0B
:10056000000000002D0000002B0000002000000013
:1005700070B504460D4621461068AFF3008021880F
:10058000090502D50F4A7A4402E00E4A7A440E3237
:10059000002104F1240305E000F00F060009965D38
:1005A0005E54491C0028F7D120780023000704D5A9
:1005B000702D02D009B1022311322046BDE87040EF
:1005C00000F0CBBABAEA00002DE9F05F8946044694
:1005D0004FF0000ADFF824B1FB44C0F820A0204609
:1005E000E168884700287DD0252806D0D4E901217C
:1005F0009047206A401C2062F1E700255F462046B4
:10060000E16888472028064607DB312E05D2B81955
:1006100010F8200C08B10543F1E7A80701D525F033
:100620000405C4F81CA00027C4F818A02A2E09D07D
:10063000304605F027FA38B304EB8708303EC8F897
:10064000186019E059F8041B204604EB87029161F9
:10065000E1688847012F064618D1E069002820DAB2
:1006600025F020051DE0D8F8180000EB800006EB0F
:1006700040003038C8F818002046E1688847064630
:1006800005F000FA0028EED1012F0AD02E2E08D155
:100690002046E16888477F1C0646022F45F020056A
:1006A000C4DBA069002803DA404245F00105A061DF
:1006B000E80701D025F01005A6B1A6F141001928E0
:1006C00002D8203645F400654A463146204625606A
:1006D0004D46FFF787FD60B1012807D0ED1D25F0DD
:1006E000070000E007E000F1080978E705F10409D8
:1006F00075E730467AE7206ABDE8F09F90EA00008F
:10070000401ECAB210F8011F8A4202D00029F9D156
:100710000020704740EA0103024630B59B0710D124
:100720004FF0013400E008C208C91D1B9D4315EAC3
:10073000C41FF8D013F0FF0102F8011B0DD01B0AF3
:10074000F8E711F8013B002B02F8013B05D011F846
:10075000013B002B02F8013BF3D130BD10B5431C27
:1007600002E010F8011B71B18107FAD14FF001329C
:1007700002C88C1A8C4314EAC211F9D0C01A0A06B6
:1007800003D0C01E10BDC01A10BD0A0401D0801EC7
:1007900010BD0902FCD0401E10BD40EA010370B537
:1007A0009B072ED14FF00136042A2AD308C810C95E
:1007B0009D1B9D43121F15EAC61517D0D8B2E1B292
:1007C000401A50EA056110D198B2A1B2401A50EA1D
:1007D00005410AD123F07F4024F07F41401A50EABE
:1007E000052102D1180EA0EB146070BDA342DBD02E
:1007F00018BA21BA884201D9012070BD4FF0FF30EC
:1008000070BD0AB9002070BD10F8013B11F8014B12
:1008100063B1A3420AD1521E08D010F8013B11F86F
:10082000014B1BB1A34201D1521EEDD1181B70BD6B
:10083000032A40F2308010F0030C00F0158011F80C
:10084000013BBCF1020F624498BF11F801CB00F8E4
:10085000013B38BF11F8013BA2F1040298BF00F838
:1008600001CB38BF00F8013B11F0030300F02580F5
:10087000083AC0F0088051F8043B083A51F804CB1C
:10088000A0E80810F5E7121D5CBF51F8043B40F8E2
:10089000043BAFF30080D20724BF11F8013B11F8ED
:1008A00001CB48BF11F8012B24BF00F8013B00F831
:1008B00001CB48BF00F8012B704710B5203AC0F0BB
:1008C0000B80B1E81850203AA0E81850B1E8185051
:1008D000A0E81850BFF4F5AF5FEA027C24BFB1E88E
:1008E0001850A0E8185044BF18C918C0BDE81040FF
:1008F0005FEA827C24BF51F8043B40F8043B08BF08
:100900007047D20728BF31F8023B48BF11F8012BCE
:1009100028BF20F8023B48BF00F8012B70474FF07A
:1009200000020429C0F0128010F0030C00F01B80BC
:10093000CCF1040CBCF1020F18BF00F8012BA8BFCA
:1009400020F8022BA1EB0C0100F00DB85FEAC17C8E
:1009500024BF00F8012B00F8012B48BF00F8012B41
:1009600070474FF0000200B5134694469646203972
:1009700022BFA0E80C50A0E80C50B1F12001BFF458
:10098000F7AF090728BFA0E80C5048BF0CC05DF8BE
:1009900004EB890028BF40F8042B08BF704748BF0C
:1009A00020F8022B11F0804F18BF00F8012B704780
:1009B00010B5044610F0030F08BF11F0030F40F00C
:1009C00015804FF0013E121FC0F20E8051F8043B1B
:1009D000A3EB0E0C2CEA030C1CEACE1C08BF40F85B
:1009E000043BF0D0A1F1040102F10402521E08DB25
:1009F00011F8013B002B00F8013BF7D11146FFF73E
:100A00008EFF204610BD00004FF0013C50F8042B33
:100A100051F8043B9A4221D1A2EB0C03934313EA11
:100A2000CC1317D150F8042B51F8043B9A4215D13E
:100A3000A2EB0C03934313EACC130BD150F8042B15
:100A400051F8043B9A4209D1A2EB0C03934313EAF9
:100A5000CC13DBD04FF00000704700BFD01A01BAB2
:100A6000B1FA81F101F0180122FA01F0CB40C1F195
:100A70002001DBB2C0B2C01A2CFA01F3D11A9143A3
:100A800011EAC311E6D1704770477047704770474D
:100A900010B500F001FB001D10BD00BFA1D3000088
:100AA00000487047DC21002070477047704770474E
:100AB00038B504460A4600206946AFF30080002896
:100AC00008BF38BD02460099204600F0EDFA01202B
:100AD00038BD012000F0F6BBF8B5AFF30080054645
:100AE00000200C46102000BF0646A819A0420DD9D0
:100AF000324669460020AFF30080070008BF00F0CF
:100B0000E1FB0098A04218BF0546C419FFF7C8FFD3
:100B100005600746F01D20F007004619284600F042
:100B20000AF8B44208BFF8BDA21B31463868BDE8D8
:100B3000F84000F0B9BA00210160C0E90110704727
:100B40001020704710B500F0ABFA006810BD10B56A
:100B5000044600F0A5FA046010BD2DE9F0470D46EB
:100B600099469246044600F124080168880604D597
:100B7000E06921F01001216000E00120A84201DDC0
:100B8000471B00E00027A1697A1902EB0900081A47
:100B9000A0612078C00602D42046FFF75DFC002645
:100BA00008E0D4E901211AF806009047206A401CA9
:100BB000761C20624E45F4DB2078C0060AD520461C
:100BC000FFF74AFC06E0D4E9012130209047206A73
:100BD000401C2062381EA7F10107F4DC07E0D4E9CD
:100BE000012118F805009047206A401C2062281E49
:100BF000A5F10105F3DC2046FFF744FC2078000650
:100C000002D50220BDE8F0870120FBE770472DE9FF
:100C1000FF4F0C461E464FF0FF378BB0D2E9000164
:100C2000DDF860800A908A46C1F30A5505B93D4651
:100C3000002108464FF00000BAF1000F00F4400018
:100C400005DA00EB80004FF4400101EA50004FEA62
:100C50009059B9F1010F00DDB9460A9850EA4A00EF
:100C60000ED044F61050A5F2FF3545432F14B8F1CD
:100C7000000F1ED07542291E1EDDC9F100021CE0C6
:100C8000B8F1010F4FF0000001D0302103E0F24332
:100C900005E02154401CB042FBDB3046002200211D
:100CA00021540B99C1F80880C1E900200FB0BDE8BC
:100CB000F08FBD1B6D1CDEE74A4600DA694206A8CC
:100CC00000F092FA06AB93E8070003AB83E8070055
:100CD00050460A9900F06FFB8DE80700A0F5005020
:100CE0001F3800900398002D09DD42F21F014A468B
:100CF000084403A90390684600F0CEFD08E0A0F583
:100D000000504A461F3803A90390684600F0D8FDFA
:100D10008DE807000004000C03D04FF0FF304108BD
:100D200000E01046B8F1000F03D0002200921546F3
:100D30001EE0751E05D400F0D1F9303262556D1EEB
:100D4000F9D5B3460122084302D000227F1C04E0FB
:100D50002078302801D100227F1E002A099786D0F2
:100D60001DE0112D07DA00F0B9F9303262556D1C23
:100D700050EA0102F5D1084302D00098C8B10EE054
:100D80000021681E05E0235C625C63542254401E0F
:100D9000491C8142F7DBAB46A81B401E099000208E
:100DA00004F80B000B98099AC0F80880C0E9002BE2
:100DB0007CE711264FF0000859E72DE9F04F8846EF
:100DC0000446D21D22F0070191B0D1E90001CDE91E
:100DD0000A0104F0CDFD02460B98C00F01D02D2072
:100DE00007E02068810701D52B2002E0202101EADD
:100DF000C000032A099001D0072A05DB03464146BB
:100E0000204600F0B1F90BE12078800601D5E069B9
:100E100000E00620B8F1650F814606D0B8F1660FF4
:100E200018D0B8F1670F70D131E00020B9F1110F7F
:100E3000009001DB112301E009F101030AAA01A9D5
:100E40000CA8FFF7E4FEDDE90C70002609F10105AE
:100E5000834647E001204B4600904FF000470AAA26
:100E600001A90CA8FFF7D3FEDDE90DB00C995D4692
:100E7000002610B909F101000D18B9EB050003D4E3
:100E8000C0F1FF3609F10105A5EB09002BE0B9F12E
:100E9000010F01DA4FF001090020B9F1110F0090A4
:100EA000484601DD112300E003460AAA01A90CA867
:100EB000FFF7ADFEDDE90C704D4600268346207835
:100EC00000070AD4AB4500DA5D4601A8012D04DD18
:100ED000411911F8011C302907D04F4502DA17F1EA
:100EE000040F04DA012082460FE06D1EEEE7002FAA
:100EF00002DCED1B3E4403E0781CA84200DD7D1CB3
:100F0000B81B00F1010A4FF000472078000703D416
:100F1000AA4501DB4FF0FF3A0021B7F1004F0DF178
:100F200043088DF8431024D002202B23002F01DA30
:100F30007F422D230A21021EA0F1010000DC5FB1D7
:100F400097FBF1FC97FBF1F201FB1C7C17460CF1BF
:100F5000300C08F801CDEEE7A8F1010003702188FC
:100F6000090501D5452100E06521A0F1010800F83F
:100F7000011C09980FA9A1EB0807FF1D00B1012072
:100F8000411901EBEA70A1693844081A401EA061BA
:100F90002078C00602D42046FFF75EFA099828B1EF
:100FA000D4E901219047206A401C20622078C006C5
:100FB00022D52046FFF750FA1EE0002E04DBB34591
:100FC00002DD01A8805D00E03020D4E901219047D6
:100FD000206A401C2062761CAAF101005FEA000A28
:100FE0000AD100F059F8C0680168405CD4E90121D9
:100FF0009047206A401C2062281EA5F10105DCDC18
:1010000007E0D4E9012118F8010B9047206A401C41
:101010002062381EA7F10107F3DC2046FFF732FA01
:10102000032011B043E6000001694A1C0261087800
:10103000704700B58FB0CDE9013100210591054918
:101040007944CDE9031011466846FFF7BDFA0FB0A9
:1010500000BD0000E5FFFFFF0A6802F8010B0A600F
:10106000704710B5436913B1AFF3008001E0FFF79B
:101070001AFA012010BD127800F124010A70002232
:101080004A700122EDE711684FF0FF32E9E70000F6
:1010900000487047D421002000487047F421002008
:1010A00000487047D4210020034640688C46002841
:1010B00018BF88423CBF03464068F8D318681844FC
:1010C000884207D00CF1030020F00700001D411AF0
:1010D000521A0146081D0A60FFF774B930B5B0F125
:1010E0000A024FEA900E71F100034EEA817EB0EBE6
:1010F0000E0061EB91014FEA101E4EEA017E10EBEB
:101100000E0041EB11114FEA102E4EEA016E10EB6A
:101110000E0041EB11214FEA104E4EEA014E10EB4A
:101120000E0041EB1141401841F100014FEAD0009F
:1011300040EA41704FEAD10110EB80054FEA81048B
:1011400044EA907444EB01046D1944EB0404521B0F
:10115000A3414FF0000348BF0A3200D530BD401C08
:1011600041F1000130BD00002DE9F0411F46044669
:1011700003260168072A01F4006004DB08B116A504
:1011800005E016A503E008B115A500E015A521F0BE
:1011900010002060A069C01EA0610FB1401EA061B8
:1011A0002046FFF759F94FB1D4E90121384690475D
:1011B000206A401C2062C01C206206E0206AFAE718
:1011C000D4E9012115F8010B9047761EF8D220468C
:1011D000FFF758F9BDE8F0814E414E006E616E0098
:1011E000494E4600696E66002DE9F0478146164675
:1011F0008AB0334878440DC88DE80D0030487844F3
:10120000801C03AC0DC884E80D0041F69B300844F7
:10121000372190FBF1F290FBF1F5A5F1800501FB80
:1012200012041B3C02D56442012000E00020DFF8DC
:1012300090A080460027FA44AAF1BE0A0DE0E0071C
:1012400009D03246684607EB47010AEB810100F0FE
:1012500037FB8DE8070064107F1C002CEFD1184F7E
:101260007F44AC3F18E0E80714D007EB04100DF101
:10127000180A90E80E008AE80E00C068F04201D11A
:1012800098190890324606A903A800F019FB03AB91
:1012900083E807006D10641C002DE4D132466946D6
:1012A000B8F1000F03A802D000F0F6FA01E000F058
:1012B00007FBC9E90001C9F808200AB0BDE8F087BA
:1012C00094DF000010B500F035F8BDE8104000F0E4
:1012D0002BB87546FFF7DCFEAE460500694653465F
:1012E00020F00700854618B020B5FFF72BF8BDE8C1
:1012F00020404FF000064FF000074FF000084FF07D
:10130000000B21F00701AC46ACE8C009ACE8C0090D
:10131000ACE8C009ACE8C0098D4670470446AFF39D
:1013200000802046FEF78EFF002801D004F0B1BBFC
:101330007047000010B5012805D0002103A000F07F
:1013400021F8012010BD09A1F8E7000053494752D8
:10135000544D454D3A204F7574206F662068656185
:1013600070206D656D6F7279000000003A2048654D
:101370006170206D656D6F727920636F7272757028
:101380007465640070B505460C460A2000E06D1CCB
:1013900004F083FB35B128780028F8D102E0641C02
:1013A00004F07BFB14B120780028F8D1BDE8704030
:1013B0000A2004F072BB5FEA400C08BF91F0000FF6
:1013C0004FEA8C234FEAC12243EA51514FEA1C50A5
:1013D00018BF00F5F0404FEA300018BF41F000415F
:1013E0005FEA6C5C00F02980BCF1FF3F08BF40F071
:1013F00080407047130C06BF12044FF0100C4FF0E2
:10140000000C130E04BF12020CF1080C130F04BFE2
:1014100012010CF1040C930F04BF92000CF1020CAA
:10142000D30F04BF52000CF1010C11464FF0000223
:10143000A0F11F00A0EB0C00704711F0004F08BF97
:10144000704731F000413FF4D5AF0B0C06BF0904E3
:101450004FF0100C4FF0000C0B0E04BF09020CF102
:10146000080C0B0F04BF09010CF1040C8B0F04BF17
:1014700089000CF1020CCB0F04BF49000CF1010CE8
:10148000CCF12003A0EB0C0022FA03F302FA0CF2D9
:1014900041EA030100F10100704720F07F4C80EA2F
:1014A000030023F07F47ACEB070303F57C5300F008
:1014B000004003F1FF032DE980494FEA154B09B4C1
:1014C0004FEA144325EA0B4E24EA03480FF20426A0
:1014D00006EB132749083E785FEA320203FB0667F2
:1014E000C7F5000707FB06F64FEA54374FEAD64622
:1014F00006F1020607FB066CCCF1005C4FEA1C47C4
:101500002CEA074C07FB06F40CFB06F504EB15462A
:101510004FEA961634BF00204FF000404FEAD13713
:1015200006FB07FC4FEA1C4C0CFB0BF7D21B03FB22
:101530000CF761EB07010CFB0EF7B0EB074072EB09
:1015400017420CFB08F734BFA2EB0742B2EB07428D
:1015500061EB17414FEA0C444FEA910706FB07FC89
:101560004FEA1C4C0CFB0BF7B0EBC74072EB573249
:1015700003FB0CF734BFA2EBC742B2EBC74261EBEF
:1015800057310CFB0EF7B0EBC70072EB57720CFB38
:1015900008F734BFA2EBC702B2EBC70261EB577189
:1015A000039F4FEA816141EA921104EBCC044FEAB8
:1015B000D1374FEA826206FB07FC42EA90124FEAFB
:1015C00080604FEA1C4C0CFB0BF7D21B03FB0CF7A3
:1015D00061EB07010CFB0EF7B0EB074072EB174213
:1015E0000CFB08F734BFA2EB0742B2EB074261EBFA
:1015F00017414FEA8C554FEA910704EB9C2406FBF8
:1016000007FC4FEA1C4C0CFB0BF7B0EBC74072EB2E
:10161000573203FB0CF734BFA2EBC742B2EBC74211
:1016200061EB57310CFB0EF7B0EBC70072EB577252
:101630000CFB08F734BFA2EBC702B2EBC70261EBA9
:10164000577115EB4C254FEA816141EA92114FEA3F
:1016500082624FEAD13742EA901206FB07FC44F15E
:1016600000044FEA80604FEA1C4C0CFB0BF7D21BC6
:1016700003FB0CF761EB07010CFB0EF7B0EB074027
:1016800072EB17420CFB08F734BFA2EB0742B2EB38
:10169000074261EB174115EB1C154FEA813141EA16
:1016A00092414FEA823242EA90424FEA80304FEA5A
:1016B0000C7644F1000448EA03434EEA0B484FF02D
:1016C000000EB2EB080C71EB030724BF62463946EB
:1016D0004EEB0E0E4FF0000B0018524149414BEB00
:1016E0000B0BB2EB080C71EB03077BF1000B24BF73
:1016F000624639464EEB0E0E4FF0000B0018524179
:1017000049414BEB0B0BB2EB080C71EB03077BF180
:10171000000B24BF624639464EEB0E0E51EA02071B
:1017200018BF46F0010616EB0E7655F1000254F193
:10173000000103D5BDE88901BDE80088BDE8890145
:10174000BDE80048B619524141EB0101A3F1010384
:10175000704780807F7E7D7C7B7A7978777676751E
:101760007473727171706F6E6E6D6C6C6B6A6A6996
:101770006868676666656464636362616160605F30
:101780005F5E5E5D5D5C5C5B5B5A5A5959585857A9
:101790005756565555555454535352525251515011
:1017A00050504F4F4F4E4E4D4D4D4C4C4C4B4B4B64
:1017B0004A4A4A49494948484847474747464646AA
:1017C00045454544444444434343434242424241E5
:1017D0004141002B26D4770021D01CB54FEA3707B2
:1017E00003B44FF010004FF010014FF000000FBC99
:1017F000BDE810400BF1010BBBF1010F08BF5FEA20
:10180000170722BF12F1010211F101014FF000414F
:1018100043F1000300F0004043EA00007047F9D3B1
:101820005708DAE746EA064613F1400F4FEA164634
:101830001FDD13F1200FDFBF16430A4600212033BE
:101840005B42C8D0C3F1200746EA064602FA07F712
:101850004FEA164646EA0706C3F1200722FA03F2CA
:1018600001FA07F721FA03F14FF0000342EA0702F9
:10187000B1E746EA020646EA06464FEA164646EA57
:101880000106BCBF46EA0646360C4FF000034FF097
:1018900000024FF000019EE72DE9C048934630B4A6
:1018A00091E8380007C831EA400C48BF34EA430CDD
:1018B00003D5FFF7F2FDFFF78CFFF0BCBDE8008811
:1018C0002DE9C048934630B491E8380007C810F0BD
:1018D000804F08BF13F0804F03D100F005F8FFF7E9
:1018E00078FFF0BCBDE8008820F07F4780EA030065
:1018F00023F07F4C07EB0C03A3F57C5300F0004072
:10190000A3F1FE0392F0000F00F0B38095F0000FFA
:1019100000F077802DE901494FEA11404FEA144663
:1019200021EA004800FB06FC24EA064708FB06F60D
:1019300007FB08F800FB07F718EB06484CEB164CC2
:101940004FEA124B18EB07484FEA15464CEB17408D
:1019500022EA0B4E0BFB06FC25EA06470EFB06F6B9
:1019600007FB0EFE0BFB07F71EEB064E4CEB164C6F
:101970004FF000061EEB074E4CEB174B18EB0B0815
:1019800040F1000018EB0E0B58EB000840F100008E
:101990008F1A4FF000013CBFC943661B14BFB5EB63
:1019A000040C00213CBFC943F61B4FEA17444EEA22
:1019B0008E0E27EA04454FEA1C4704FB07622CEA17
:1019C000074C05FB07F70CFB05F604FB0CFC16EBBC
:1019D000074642EB174216EB0C4642EB1C421BEB50
:1019E000060658EB0202414146EA9E0601D5BDE8D3
:1019F0000189B619524141EB0101A3F10103BDE890
:101A000001894FEA14454FEA114724EA054621EAC5
:101A1000074C05FB07F406FB07F70CFB06F105FB7B
:101A20000CFC11EB074144EB17444FEA124711EB52
:101A30000C4144EB1C4422EA074C05FB07F206FB71
:101A400007F70CFB06F605FB0CFC16EB074642EB12
:101A5000174216EB0C4642EB1C456A1854F1000184
:101A600048BF7047B619524141EB0101A3F1010390
:101A7000704795F0000F37D04FEA11424FEA1447F4
:101A800021EA024624EA074C02FB07F106FB07F7AE
:101A90000CFB06F402FB0CFC14EB074441EB174172
:101AA0004FEA154714EB0C4441EB1C4125EA074C67
:101AB00002FB07F506FB07F70CFB06F602FB0CFC26
:101AC00016EB074645EB174516EB0C4645EB1C425B
:101AD000121951F1000148BF7047B619524141EB4C
:101AE0000101A3F1010370474FEA14454FEA114782
:101AF00024EA054621EA074C05FB07F106FB07F738
:101B00000CFB06F24FF0000605FB0CFC12EB074243
:101B100041EB174112EB0C4251EB1C4148BF70479F
:101B2000921841EB0101A3F10103704710B5094878
:101B3000408C012803D100200649488402E001209E
:101B400004494884034890F82210062006F056FD08
:101B500010BD0000301B00201CB50EA103C9CDE94B
:101B600000010E48808A01280AD100208DF8070064
:101B70000821684601F0FAF800200849888208E048
:101B80000120064988828DF807000821684601F087
:101B9000EDF81CBD5AA5058210090000301B00207D
:101BA00008B50121102001F0DFFD4FF40050ADF821
:101BB000000010208DF8030002208DF80200694615
:101BC000064800F09FFC002001F058FE4FF4005141
:101BD000024800F06BFD02F0BFFE08BD001001409E
:101BE0000EB5002000900190029003208DF80000B7
:101BF00002208DF8010000208DF802008DF803000E
:101C000002208DF804008DF80500694605200BF0D0
:101C100061FB0EBD0EB500200090019002900220E5
:101C20008DF800008DF8010000208DF802008DF87D
:101C3000030002208DF804008DF805006946052098
:101C40000BF048FB0EBD0EB50020009001900290F5
:101C500004208DF8000002208DF8010000208DF88E
:101C600002008DF8030002208DF804008DF80500B5
:101C7000694605200BF02EFB0EBD0EB5002000902E
:101C80000190029005208DF8000002208DF80100DF
:101C900000208DF802008DF8030002208DF804006A
:101CA00001208DF80500694605200BF013FB0EBDE1
:101CB0000EB5002000900190029002208DF80000E7
:101CC0008DF8010000208DF802008DF8030002203D
:101CD0008DF8040001208DF80500694605200BF001
:101CE000F9FA0EBD7FB505460024394B0FCB8DE8C0
:101CF0000F0038480078012800D17FBD0120354908
:101D000008704FF4167008F05BFD33490860084610
:101D1000006800B9F1E74AE0287830383DF8100053
:101D200061002D4A126822F8110068785F280DD1F1
:101D30006100294A126832F8110000EBD071491095
:101D40006200254B1B6823F8121010E068787E288B
:101D50000DD160002049096831F810004FF6FF717D
:101D600001EA400061001C4A126822F81100A879BB
:101D70003038082191FBF0F0012101EB4401164AB3
:101D8000126822F81100012000EB44001249096892
:101D900031F81000297930394843012101EB440121
:101DA0000D4A126822F811000835601C84B22878A8
:101DB0000028B1D1012101EB4401074A126822F841
:101DC00011000121054802F02AFE00BF95E700003E
:101DD0005CED00089C000020A000002000040040F2
:101DE00001F0C8FB02460021012109E04B00084830
:101DF00030F81300904201D101207047481C81B295
:101E00004B00034830F813000028EFD100BFF4E77F
:101E1000581B0020002000BF04E00021034A115499
:101E2000411C88B23A28F8DB70470000E11A002014
:101E30007FB505460C4600260020019002900390D5
:101E40000090FF208DF804008DF8050028128DF811
:101E50000600E8B28DF8070001208DF80800002088
:101E60008DF8090002208DF80A0000208DF80B0083
:101E700010208DF80C006A46092101A800F0D4FC5E
:101E80009DF800008DF80D009DF801008DF80E0002
:101E90000B2101A801F00CFD00BF30E0C82005F0C7
:101EA000B7F91921204601F02BFD30B3A079C11DEF
:101EB0006A46204600F0B8FC9DF80010A079C01DCD
:101EC000205C814219D19DF80110A0790830205C76
:101ED000814212D1E078A17840EA0120A8420CD1D9
:101EE00020799DF8081041F08001884205D1207AC0
:101EF000E17940EA012004B070BD701CC6B2052E25
:101F0000CCDB0A20F7E72DE9F0418EB004460D4600
:101F100016461F464FF000080020029003900490E0
:101F200005900190FF208DF808008DF8090020121F
:101F30008DF80A00E0B28DF80B0003208DF80C003C
:101F400000208DF80D0003208DF80E008DF80F5045
:101F50008DF810608DF8117001AA0A2102A800F016
:101F600063FC9DF804008DF812009DF805008DF8C3
:101F700013000C2102A801F09BFC00BF3DE0C8202B
:101F800005F046F9182106A801F0BAFC80B39DF8C7
:101F90001E00C11D01AA06A800F046FC9DF8041011
:101FA0009DF81E00C01D06AA105C814221D19DF83B
:101FB00005109DF81E000830105C814219D19DF873
:101FC0001B009DF81A1040EA0120A04211D19DF893
:101FD0001C009DF80C1041F08001884209D19DF849
:101FE00020009DF81F1040EA01200EB0BDE8F081EE
:101FF000FFE708F101001FFA80F8B8F1050FBEDB1A
:102000000A20F2E72DE9F04706460F4690461C46A7
:102010004FF0004020FA04F50C480068284010B149
:102020000120BDE8F0870948006828430749086097
:10203000002342463946304601F0DAFA814622460C
:102040004946304601F058FB0020EAE738010020FD
:1020500001F090FA10B50446A0B205F0D9F810BD11
:10206000FEB504460E4615460020009001900290F1
:1020700002208DF80000022C52D1A6B3012D17D1F9
:1020800001208DF801008DF80200694604200BF054
:1020900021F9694602200BF01DF900208DF801009E
:1020A00002208DF80200694604200BF013F9ADE020
:1020B000022DFCD101208DF8010002208DF80200D4
:1020C000694604200BF006F9694602200BF002F97C
:1020D00000208DF8010001208DF8020069460420DF
:1020E0000BF0F8F892E0FFE700208DF801000120E6
:1020F0008DF80200694604200BF0ECF869460220D6
:102100000BF0E8F800208DF8010002208DF80200A5
:1021100069460BF0DFF8694604200BF0DBF875E048
:10212000032C01D0052C51D19EB3012D17D10120D4
:102130008DF8010003208DF80200694604200BF0A1
:10214000C9F8694602200BF0C5F800208DF801009F
:1021500004208DF8020069460BF0BCF856E0022D11
:1021600054D101208DF8010004208DF80200694649
:102170000BF0B0F8694602200BF0ACF800208DF8A7
:10218000010003208DF80200694604200BF0A2F83C
:102190003CE0FFE700208DF8010004208DF80200EC
:1021A00069460BF097F8694602200BF093F800207F
:1021B0008DF8010003208DF80200694604200BF021
:1021C00089F8694602200BF085F81FE0042C1DD128
:1021D00076B101208DF8010006208DF802006946D5
:1021E00004200BF077F8694602200BF073F80DE03D
:1021F00000208DF8010006208DF8020069460420B9
:102200000BF068F8694602200BF064F8FEBD000090
:1022100070B500240025102000F06CF800285AD07A
:10222000102000F061F800BF152001F015FD0446F4
:1022300004F0F001152003F0E3FA2748047017209A
:1022400001F00AFD044604F0010070B102210020F3
:1022500001F024FD05462A460221002003F000FB80
:102260001E48007828431D49087004F00200022827
:102270000ED10221012001F011FD05462A4602215E
:10228000012003F0EDFA164800782843144908703D
:1022900004F0040004280ED10221084601F0FEFCDF
:1022A00005462A460221084603F0DAFA0D4800786E
:1022B00028430C490870172001F0CEFC0028B3D148
:1022C0000648007810B90648007818B101210720A7
:1022D00002F04CFC00BF70BD990100209A01002063
:1022E0009B0100209C01002001490860704700000C
:1022F00014040140014600200022074B1B6803EA3A
:102300000102054B14331B680B4013B10AB10120C5
:1023100000E0002070470000000401400021234934
:102320008279002A3AD00A46126803689A430B461B
:102330001A600A1D126803689A430B1D1A6002791D
:1023400011440A6803681A430A60184A083212687E
:1023500003689A43154B08331A601A1D1268036804
:102360009A43124B0C331A604279102A0ED11A1F6D
:10237000126803681A430D4B08331A601A1D12685D
:1023800003681A43094B0C331A600DE00749427980
:1023900011440A6803681A430A6005E0027911448F
:1023A0000A6803689A430A6070470000000401400D
:1023B00030B5044604254FF4302000F06FF8054690
:1023C000042D17D10C48006940F002000A49086149
:1023D00008464461006940F0400008614FF4302035
:1023E00000F05CF805460448006941F6FD710840BC
:1023F00001490861284630BD0020024004200B49F5
:10240000C96801F0010109B101200EE00749C9685E
:1024100001F0040109B1022007E00449C96801F094
:10242000100109B1032000E00420704700200240A1
:102430000348006940F080000149086170470000CE
:102440000020024070B504460D460426F00200F05C
:1024500025F80646042E11D10948006940F0010014
:10246000074908612580F00200F018F80646044884
:10247000006941F6FE71084001490861304670BDAF
:102480000020024002480349486003484860704702
:102490002301674500200240AB89EFCD00B502461D
:1024A0000423FFF7ABFF034603E0FFF7A7FF034654
:1024B000521E012B01D1002AF7D102B9052318467B
:1024C00000BD000030B500228B071C0F0F2303FA5C
:1024D00004F20B4B8C1053F824309343084C8D10AE
:1024E00044F8253023468C1053F824308C07240FF1
:1024F00000FA04F42343024C8D1044F8253030BD1B
:10250000080001402DE9F041024600250026002088
:1025100000230024002791F803C00CF00F0591F868
:1025200003C00CF0100CBCF1000F03D091F802C0F6
:102530004CEA050591F800C0BCF1000F31D01468D9
:1025400000202BE04FF0010C0CFA00F3B1F800C0B2
:102550000CEA03069E4220D183004FF00F0C0CFAC8
:1025600003F7BC4305FA03FC4CEA040491F803C0EA
:10257000BCF1280F06D14FF0010C0CFA00FCC2F898
:1025800014C00AE091F803C0BCF1480F05D14FF028
:10259000010C0CFA00FCC2F810C0401C0828D1D372
:1025A0001460B1F800C0BCF1FF0F34DD54680020A6
:1025B0002EE000F1080C4FF0010808FA0CF3B1F816
:1025C00000C00CEA03069E4221D183004FF00F0C9D
:1025D0000CFA03F7BC4305FA03FC4CEA040491F837
:1025E00003C0BCF1280F05D100F1080C08FA0CF863
:1025F000C2F8148091F803C0BCF1480F07D100F174
:10260000080C4FF0010808FA0CF8C2F81080401CC2
:102610000828CED35460BDE8F0810000F0B50A462A
:10262000002300240021002500F00046B6F1004FF1
:1026300002D11D4EF16901E01B4E7168C0F30345E4
:1026400083B200F44016B6F5401F08D121F0706146
:10265000154E766826F07066134F7E6012E000F427
:102660008016B6F5801F06D1032606FA05F4A143AD
:1026700041F0706106E0460D360103FA06F6B143FB
:1026800041F0706122B1460D360103FA06F631437E
:1026900000F00046B6F1004F02D1034EF16101E0B7
:1026A000014E7160F0BD00000000014041617047C3
:1026B0000161704700487047961A00200048704733
:1026C000581B00200246002100BF0DE0012000EB56
:1026D00041000A4B13F81000904203D1480033F830
:1026E00010007047481C81B2012000EB4100034BF1
:1026F00033F810000028E9D100BFF2E750000020B5
:1027000002460021012110E04B000C4830F8130074
:10271000904208D1012000EB4103084830F8130033
:1027200000F47F407047481C81B24B00034830F8EA
:1027300013000028E8D1FF20F4E70000581B002018
:102740000246002100BF0EE04B000B4830F813009A
:10275000904206D1012000EB4103074810F8130016
:102760007047481C81B24B00034830F81300002822
:10277000EAD1FF20F4E70000581B002030B50246E4
:102780000B4600210024012112E0012000EB41054D
:102790000C4810F81500904208D19C4204D14D001D
:1027A000084830F8150030BD601C84B2481C81B266
:1027B000012000EB4105034830F815000028E4D162
:1027C00000BFF0E7581B002013490988322904DABA
:1027D0001249114A1288885C05E000210E4A1180D6
:1027E0000E491288885C00210D4A11600B4A0A4B81
:1027F0001B88D1540B49098821B10A490988491E0F
:10280000084A11800121064A116003490988491CC0
:10281000014A1180704700007A000020AF1A0020A2
:102820009401274280000020F0B50B46FF24FF25CD
:1028300009E010F8016B86EA0401074E765C86EA2F
:102840000504064E755C1E00A3F10107BBB2F0D172
:1028500014705570F0BD00006CED00086CEE0008BF
:1028600010B501464A1E034B985C00234A1E014CDA
:10287000A35410BD140000200148008D70470000D3
:10288000301B002000487047C01C002010B50446D3
:10289000002300BF04E00548C05CE054581C83B22C
:1028A0003A2BF8DBFFF7B6FA184610BDE11A002004
:1028B0000146002000BF04E0034A125C0A54421C97
:1028C00090B20628F8DB70473000002010B50023D6
:1028D000154C2360002020E030B9C0F10603134CF2
:1028E000E35CDB43DAB203E0C0F106030F4CE25CC9
:1028F00000210FE000230C4C241D2360C1F10703CD
:1029000042FA03F30A4CC4F880310123064C241D1B
:102910002360491C0829EDDB401C0728DCDB012370
:10292000014C236010BD00008801224230000020CD
:102930000000224210B52448C08B01280ED101218D
:10294000084605F05BFE642004F07EFC00210220B6
:1029500005F054FE642004F077FC20E01A48C08B98
:1029600002280ED10021012005F048FE642004F069
:102970006BFC0121022005F041FE642004F064FCA0
:102980000DE00021012005F039FE642004F05CFC1C
:102990000021022005F032FE642004F055FC0A48B4
:1029A000408C012807D10121062005F027FE642074
:1029B00004F04AFC06E00021062005F01FFE64201A
:1029C00004F042FC10BD0000301B002000F0D2FDDE
:1029D0001CB5044609A103C9CDE90001E07960B93D
:1029E000207A052809D1607A0D2806D1A07AC0285E
:1029F00003D10621684600F0B9F91CBD5AA5038031
:102A00004F02000010B5FF247E480068A8B97E4838
:102A1000007810BB03207D4908707D480078401C79
:102A20007B49087008460078502816DB0220774959
:102A300008700120744908700FE07548007801287B
:102A400006DD73480078502802DA01206F490870CB
:102A500000206F4908706C4908706E480068A8B97A
:102A60006948407810BB032068494870684840783E
:102A7000401C6749487008464078502816DB022001
:102A8000624948700120604948700FE06048407812
:102A9000012806DD5E484078502802DA01205B49B3
:102AA000487000205A494870574948705548001DE1
:102AB0000068A8B95448807810BB03205349887037
:102AC00053488078401C52498870084680785028C6
:102AD00016DB02204D49887001204B4988700FE0B9
:102AE0004B488078012806DD49488078502802DA72
:102AF0000120464988700020454988704249887005
:102B000045480068A8B94048C07810BB03203F4939
:102B1000C8703F48C078401C3D49C8700846C0781E
:102B2000502816DB02203949C87001203649C87088
:102B30000FE03748C078012806DD3548C0785028B6
:102B400002DA01203149C87000203149C8702E498D
:102B5000C8702C4808300068A8B92B48007910BB11
:102B600003202A4908712A480079401C2849087125
:102B700008460079502816DB0220244908710120FC
:102B8000214908710FE022480079012806DD20481C
:102B90000079502802DA01201C49087100201C49E4
:102BA0000871194908711C48001F0068A8B9164827
:102BB000407910BB03201549487115484079401CE5
:102BC0001349487108464079502816DB02200F4906
:102BD000487101200C4948710FE00D4840790128E7
:102BE00006DD0B484079502802DA01200749487178
:102BF000002007494871044948710121084601F045
:102C0000B5FF10BD1C012242260000201400002048
:102C100020000020000121422481214210B5012121
:102C2000102000F0A1FD0121102000F09DFD0121E8
:102C3000084600F099FD01F0BFFE10BD10B586B04A
:102C400004460121042000F08FFD0121082000F03E
:102C50008BFD0121480400F067FD4FF48050ADF872
:102C6000140010208DF8170003208DF8160005A918
:102C70002A48FFF747FC0420ADF8140018208DF80F
:102C8000170005A92648FFF73DFC0820ADF8140001
:102C900004208DF8170005A92148FFF733FC012116
:102CA000480400F051FD00214FF4003000F04CFDCD
:102CB00001940020ADF80800ADF80A00ADF80C0052
:102CC000ADF810000C20ADF80E0001A9154802F077
:102CD0006BFB26208DF8000000208DF801000220FB
:102CE0008DF8020001208DF80300684600F000FC1A
:102CF000012240F225510B4802F031FB012240F243
:102D00002441084802F02BFB0121064802F095FA05
:102D100000200549086006B010BD0000000C01400D
:102D20000008014000440040B081214230B5034614
:102D30000C4C2278002000240C800A4C2478A242FB
:102D40000FD172B100BF04E0074C245C1C54441C3A
:102D5000E0B29042F8DB034C24780C800024014D53
:102D60002C7030BD2E000020D019002070B5054613
:102D70000E4601200F49086000240CE000BF4021EE
:102D80000D4802F0B5FA0028F9D0295D0A4802F092
:102D90007CFB601CC4B2B442F0DB00BF402106489B
:102DA00002F0A6FA0028F9D0002004490870014971
:102DB000086070BDB0812142004400402E00002018
:102DC000202801D201490870704700002D00002022
:102DD00000B587B000200490059006900190029005
:102DE000039003208DF8100001208DF811003F2082
:102DF0008DF8120000208DF8130001208DF81400CA
:102E000000208DF8150001208DF8040005208DF8B4
:102E100005003F208DF8060001A901200AF05AFAAA
:102E200002208DF8040000208DF8050005208DF8A3
:102E3000060001A904200AF04DFA04A902200AF0B4
:102E400049FA07B000BD00B587B000200490059096
:102E5000069001900290039003208DF8100001204D
:102E60008DF8110000208DF812008DF8130001205C
:102E70008DF8140000208DF8150001208DF8040055
:102E800005208DF8050000208DF8060001A901201D
:102E90000AF020FA02208DF8040001208DF80500C8
:102EA00005208DF8060001A904200AF013FA04A9F0
:102EB00002200AF00FFA07B000BD0000014991F8A6
:102EC00022007047301B00200146052903DA034821
:102ED00030F8110070470020FCE70000301B002094
:102EE0000149488470470000301B00200246052A33
:102EF00002DA024820F8121000207047301B002030
:102F000008B50121102000F02FFC0F20ADF80000C3
:102F100010208DF8030003208DF8020069461B483D
:102F2000FFF7F0FA00201A4908601A49C1F8A00119
:102F30000121082000F018FC0120ADF8000010204D
:102F40008DF8030003208DF8020069461248FFF750
:102F5000D9FA0121042000F007FC0220ADF800009E
:102F600010208DF8030003208DF8020069460B48FD
:102F7000FFF7C8FA00200A490860FFF7A7FC002005
:102F80000449C1F8840105F041FF08BD001001406B
:102F90009C01224200002242000C01400008014036
:102FA0008081214210B50024C8221849184801F038
:102FB00003F800BF1FE0154830F814004FF6FF710A
:102FC000884203D10021114820F8141004F00100B8
:102FD00078B10E4810F8141020F8141010F81400EE
:102FE00038B10A4830F8140040F40061074820F86E
:102FF0001410601C84B2C82CDDDB04482838408DD6
:1030000040F4807101482838418510BD581B0020CC
:1030100028FC00081CB500240020009001901848EE
:10302000808BADF800001648C08BADF80200144844
:10303000008CADF804001248408CADF80600142254
:103040000F49104800F0B8FF00BF0CE00C4830F802
:1030500014004FF6FF71884203D10020084921F87F
:103060001400601C84B2142CF0DBBDF8000004498D
:103070008883BDF80200C883BDF8040008841CBD25
:10308000301B002000FC000810B506490622064847
:1030900007F0ACFB0448007800F0FE00024908701D
:1030A00010BD0000EAF7FF1F8900002070B54FF443
:1030B000C86007F085FB05462C4614A214A12046E3
:1030C0000AF052FA083411A212A120460AF04CFA72
:1030D00008340EA210A120460AF046FA08340BA2CA
:1030E0000EA120460AF040FA08340DA20DA1204698
:1030F0000AF03AFA0834204604F05CFC2846FEF751
:10310000F1FD284607F048FB70BD0000312F32006A
:1031100035000000340000003300000032000000E1
:10312000312F31003100000070B54FF4C86007F056
:1031300047FB05462C4614A214A120460AF014FAB7
:10314000083411A212A120460AF00EFA08340EA289
:1031500010A120460AF008FA08340BA20EA120465E
:103160000AF002FA08340DA20DA120460AF0FCF97B
:103170000834204604F01EFC2846FEF7B3FD28461E
:1031800007F00AFB70BD0000312F32003100000053
:10319000320000003300000034000000312F310005
:1031A000350000002DE9FF4704460D4616469946B6
:1031B00000200390029600278046009002A809F0A4
:1031C00095F98DF80C000398C0F30310022800D085
:1031D0001FE001A9029800F04DF8804602990844CA
:1031E0000290DDE9011047180298381A022800DA27
:1031F0000FE002A809F07AF98DF80000009800F0BD
:103200000100207002A809F071F928704FF0010840
:1032100000BF404604B0BDE8F0872DE9F8430546FD
:103220000C46012600270020206000BF4FF0FF3829
:10323000781C0746042801DD00BF17E0012168461D
:10324000A8478046B8F1010F00D00FE09DF80010AC
:1032500001F07F01206801FB06002060F6019DF867
:10326000000000F080000028E0D100BF3846BDE833
:10327000F883000070B504460D46034804602946F3
:103280000248FFF7CAFF70BDCC0100209D5A00081C
:1032900030B50246002300BF0846CD1701EB556547
:1032A000ED11A1EBC515ECB2CD1701EB5565E91198
:1032B000002901DD44F0800418465B1C14540029E9
:1032C000EADC184630BD0000401C802801DA401CB2
:1032D0000AE0B0F5804F01DA801C05E0034988421E
:1032E00001DAC01C00E0001D70470000FFFF1F0056
:1032F0002DE9FE4305460E46144602950020019036
:10330000009000274FF0FF38204600F0A5F8074650
:103310008146FFF7D9FFB04202DD6FF001088FE070
:1033200000208DF80400019820F0F000103001908A
:103330009DF8041002A80AF0FBFC39460298FFF73A
:10334000A7FF029908440290207A042808D13EA1E0
:1033500002A80AF0D9FC042102A80AF0E9FC07E05F
:103360003BA102A80AF0D0FC032102A80AF0E0FC6D
:1033700000208DF80000A17E009861F341000090CC
:10338000E07E08B1012100E00021009861F3820095
:1033900000900098C0F3800058B194F83D10009858
:1033A00061F3C400009094F83C10009861F345105C
:1033B0000090206C08B9A06C20B1009820F080002B
:1033C00080300090E06C08B9606D20B1009820F06A
:1033D0004000403000909DF8001002A80AF0A8FCC0
:1033E000218B02A80AF0AAFC02A8D4E90423E16810
:1033F0000AF0BCFCE07E58B102A8D4E90A23616A55
:103400000AF0B4FC02A8D4E90D23216B0AF0AEFC4B
:103410000098C0F3C01028B102A8D4E91123216C90
:103420000AF0A4FC0098C0F3801028B102A8D4E9E7
:103430001423E16C0AF09AFC0298A0EB050800BF87
:103440004046BDE8FE8300004D515454000000008A
:103450004D5149736470000070B504460025207A10
:10346000032801D10C2503E0207A042800D10A2585
:10347000D4E90412E06800F02AF8801C0544E07EDC
:1034800068B1D4E90A12606A00F021F8861CD4E918
:103490000D12206B00F01BF83044801C0544206C9A
:1034A00008B9A06C30B1D4E91112206C00F00FF80B
:1034B000801C0544E06C08B9606D30B1D4E9141289
:1034C000E06C00F004F8801C0544284670BD37B558
:1034D0000024009820B10098FDF740F9044600E070
:1034E000019C20463EBD00F045F800F043F8000086
:1034F00070B5002100230F22C47804B3154C246852
:1035000004F4E064C4F5E064210AC1F10403CA4094
:10351000447804FA03F184781440214309010E4CE5
:103520000678A155047804F01F050124AC40057805
:103530006D11AD0005F1E025C5F8004109E0047802
:1035400004F01F050124AC40044D0678761145F8BF
:10355000264070BD0CED00E000E400E080E100E0FA
:1035600002490143024A1160704700000000FA0559
:103570000CED00E00648006800F4E06005490843EF
:10358000001D03490860BFF3408F00BFFEE7000045
:103590000CED00E00000FA0510B50E480068C0B957
:1035A0000D480068FCF7A7FE0C4908600846006853
:1035B0000B4908600948006800EB4000094901EB2D
:1035C000C000094908600846006808490860FCF71F
:1035D00056FE10BD180100203801002020010020F7
:1035E0001C010020141E00202801002024010020BE
:1035F00070B5044610464FF080750560051F2846DB
:103600002C606FF00106051F28462E604FF0123621
:10361000051F28462E604FF00336051F28462E60F2
:103620004FF00236051F28462E607610051F2846EB
:103630002E60051F284629604FF01136051F2846C9
:103640002E604FF01036051F28462E604FF00936C9
:10365000051F28462E604FF00836051F28462E60AD
:103660004FF00736051F28462E604FF00636051F1F
:1036700028462E604FF00536051F28462E604FF075
:103680000436051F28462E6070BD000010B5FCF7FB
:10369000EFFD044606480078401C054908700548BF
:1036A0000078054908702046FCF7E6FD10BD0000D3
:1036B00034010020200100203C01002070B52025AD
:1036C000FCF7D6FD04460A48007820B10848007887
:1036D000401E074908700648007810B920200549A7
:1036E00008702046FCF7C8FD01F0D4FC70BD000056
:1036F000340100203C01002030B5034602EB4200BB
:10370000084C44F8301002EB420004EBC000436068
:103710004FF0004002EB4204024D05EBC404E060B0
:10372000002030BD141E002029B1064AD269024390
:10373000044BDA6104E0034AD2698243014BDA6147
:10374000704700000010024029B1064A1269024386
:10375000044B1A6104E0034A12698243014B1A6167
:10376000704700000010024029B1064A92690243E6
:10377000044B9A6104E0034A92698243014B9A61C7
:10378000704700000010024029B1064AD268024387
:10379000044BDA6004E0034AD2688243014BDA60EA
:1037A000704700000010024030B5002100220024C4
:1037B00000232D4D6D6805F00C0121B1042905D0C1
:1037C000082923D105E0294D056022E0274D056039
:1037D0001FE0254D6D6805F47012234D6D6805F4EA
:1037E0008034022505EB92421CB9214D55430560FA
:1037F0000BE01D4D6D6805F400351DB11C4D5543A2
:10380000056002E0194D5543056002E0174D056063
:1038100000BF00BF144D6D6805F0F0010909154D9A
:103820006B5C0568DD4045600F4D6D6805F4E06137
:10383000090A104D6B5C4568DD4085600A4D6D6876
:1038400005F46051C90A0B4D6B5C4568DD40C560ED
:10385000054D6D6805F44041890B074D6B5CC568EB
:10386000B5FBF3F5056130BD0010024000127A008F
:1038700000093D00B6010020C601002000210B4ACE
:1038800011700A4A203A82F82010012802D0042838
:1038900008D103E00121054A117004E00521034A23
:1038A000117000E000BF00BF704700002010024010
:1038B00070B504460D460F4800780F4909688842E4
:1038C00001D0002070BD0DB90020FBE70BE000BF68
:1038D00080210A4801F00CFD0028F9D02078074922
:1038E000091D0880641C2800A5F10101CDB2EED1AC
:1038F00000BFE7E7780000202001002000380140E9
:103900002DE9F04105460E46002400BF03E00020EB
:103910002855601C84B2B442F9DB002442F21078CE
:1039200009E0A8F101001FFA80F8B8F1000F02D1F8
:103930000020BDE8F081214800780028F1D020481F
:103940000068002838D0002400270CE000F086FC36
:10395000FF2804D100F096FCFF2800D105E0FEF717
:1039600033FF781C87B2322FF0DB00BF002410E059
:10397000FEF72AFF2855601C84B2B44200D10CE047
:1039800000F06CFCFF2804D100F07CFCFF2800D183
:1039900003E00C4800880028EAD100BF09480088ED
:1039A00050B9002008490880084908600849088083
:1039B00001200849C1F894012046BAE7820000209E
:1039C00020012142800000207A000020940127423B
:1039D0007C0000200000274210B586B0044601217B
:1039E0000420FFF7C1FE01218803FFF7BDFE464812
:1039F00001F030FC4FF48070ADF8140004208DF815
:103A0000170003208DF8160005A94048FEF77AFD3F
:103A10004FF480713D48FEF74BFE4FF40060ADF867
:103A2000140010208DF8170003208DF8160005A94A
:103A30003648FEF767FD4FF400613448FEF736FE66
:103A40004FF48050ADF8140010208DF817000320BB
:103A50008DF8160005A92D48FEF754FD4FF480514E
:103A60002A48FEF723FE4FF40070ADF81400022040
:103A70008DF8160018208DF8170005A92348FEF7C9
:103A800041FD4FF48060ADF8140004208DF817005C
:103A900005A91E48FEF736FD25208DF80000002000
:103AA0008DF801008DF8020001208DF803006846B2
:103AB000FFF71EFD01940020ADF80800ADF80A00E4
:103AC000ADF80C00ADF810000C20ADF80E00002190
:103AD0000D4801F0B2FB0C4801F0BCFB01A90A48FB
:103AE00001F062FC012240F22551074801F037FC49
:103AF000012240F22441044801F031FC0121024836
:103B000001F09BFB06B010BD0038014000080140E9
:103B100070B50446FCF7ACFB0546202C01D20348E7
:103B200004702846FCF7A8FB70BD00007800002058
:103B30002DE9F04780460D462621404600F0D6F894
:103B4000064616B90020BDE8F08740F2B450864220
:103B500000DD06462821404600F0C8F80746B94671
:103B6000C7F30A0710213A48FEF7A0FD384600F0D7
:103B700031F9182101EB4811C8B200F01BF93548A2
:103B800000F0F7F900F0FF0AB819B0F5006F11DA8C
:103B900000240CE0002000F00DF92E4800F0E9F9B7
:103BA00000F0FF0A85F800A06D1C601C84B2B442CE
:103BB000F0DB39E0C7F5006087B200240CE000209C
:103BC00000F0F8F8234800F0D4F900F0FF0A85F877
:103BD00000A06D1C601C84B2BC42F0DB10211C48AC
:103BE000FEF766FD10211A48FEF760FD002000F088
:103BF000F1F8182101EB4811C8B200F0DBF81548C4
:103C000000F0B7F900F0FF0A0CE0002000F0D2F855
:103C1000104800F0AEF900F0FF0A85F800A06D1C16
:103C2000601C84B2B442F0DB10210948FEF740FD6D
:103C300009EB06001FFA80F94A462821404601F0A8
:103C40002DFE40220121404601F00AFE30467AE76F
:103C5000000801400030014070B5044610210D48B5
:103C6000FEF724FD204600F0B5F8012000F0A2F890
:103C7000094800F07EF9C5B2002000F09BF8064824
:103C800000F077F9C5B210210248FEF711FD284671
:103C900070BD0000000801400030014070B50446CE
:103CA0000D4610210F48FEF701FD284600F092F85E
:103CB000082101EB4411C9B241F0010000F07AF88B
:103CC000094800F056F9C6B2002000F073F8064823
:103CD00000F04FF9C6B210210248FEF7E9FC304669
:103CE00070BD0000000801400030014070B505467D
:103CF0000E4610211548FEF7D9FC304600F06AF850
:103D0000082101EB4511C9B241F0020000F052F860
:103D10000F4800F02EF90446002000F04BF80C4844
:103D200000F027F90446002000F044F84FF6FF7039
:103D300000EA0424064800F01CF9204484B2102153
:103D40000248FEF7B5FC204670BD000000080140A7
:103D50000030014008B501210820FFF705FD0420CF
:103D6000ADF8000010208DF8030002208DF802004D
:103D700069460448FEF7C6FB04210248FEF798FC9A
:103D800008BD0000000C014008480078401C0749AD
:103D9000087008460078642806DD00200870044892
:103DA0000068401C02490860704700002C00002099
:103DB0001C00002010B504462146054800F0DCF840
:103DC00000BF0221024800F0CBF80028F9D010BD56
:103DD0000030014070B504462546E11704EB11613F
:103DE000C1F30720FFF7E6FFE0B2FFF7E3FF70BD86
:103DF00021B1028842F04002028004E002884FF6BE
:103E0000BF731A400280704700B587B0012141F2AC
:103E10000500FFF7A9FCE020ADF8180003208DF89D
:103E20001A0018208DF81B0006A91E48FEF76AFB31
:103E3000E0211C48FEF73CFC1020ADF818000320E0
:103E40008DF81A0010208DF81B0006A91548FEF702
:103E500059FB10211348FEF72BFC0020ADF804009D
:103E60004FF48270ADF806000020ADF80800ADF800
:103E70000A00ADF80C004FF40070ADF80E00002001
:103E8000ADF81000ADF812000720ADF8140001A93C
:103E9000054800F073F801210348FFF7A9FF07B0B8
:103EA00000BD0000000801400030014008B50121BC
:103EB0000820FFF759FC01210846FFF755FC0121B6
:103EC0001248FEF7ABFBB020ADF8000010208DF8D3
:103ED000030003208DF8020069460D48FEF712FB2F
:103EE0004020ADF8000048208DF8030003208DF835
:103EF000020069460648FEF705FBF0210448FEF77C
:103F0000D7FB00F009F80349088008BD0002300023
:103F1000000C0140E200002010B5002400200E49F2
:103F20000860902001F02AFB002001F027FB002010
:103F300001F024FB002001F021FBFF2001F01EFB1B
:103F400044EA0024FF2001F019FB04430120034947
:103F5000C1F89C01204610BD9C8121420080214275
:103F60000246002013890B400BB1012000E0002025
:103F700070470146888970478181704710B50022DB
:103F8000028802F441520B884C8823438C882343D7
:103F9000CC8823430C8923434C8923438C892343B6
:103FA000CC8923431A430280838B4FF2FF74234052
:103FB00083830B8A038210BD2DE9F04107460D462D
:103FC0001646FFF763FB002407E0384600F00BF8C5
:103FD00025F81400BF1C601C84B2B442F5DBFFF767
:103FE0006DFBBDE8F0810146088870472DE9F74F69
:103FF00082B080461646FFF749FB8149098889B29D
:10400000FF2902D84FF4806101E04FF400610846B7
:1040100006F0D6FB074627B9FFF750FB05B0BDE811
:10402000F08FB8F1006F07D375480088000480094D
:1040300000F10060404500D8F0E7FEF723FAA8F150
:10404000006B6F48008880B2FF2802D84FF4806070
:1040500001E04FF40060BBFBF0F96948008880B2D2
:10406000FF2802D84FF4806001E04FF40060BBFBF2
:10407000F0F100FB11B04FEA500A6149098889B29A
:10408000FF2902D84FF4806101E04FF40061084637
:1040900001EBD071CAEB61018CB2A64200DC344660
:1040A000A2E05749098889B2FF2902D84FF48061FC
:1040B00001E04FF40061019101EBD171C1F34F02B6
:1040C0004F49098889B2FF2902D84FF4806101E085
:1040D0004FF4006101FB09F101F100603946FFF77F
:1040E0006BFF00250AE00AEB050037F810004FF6D9
:1040F000FF71884200D003E0681C85B2A542F2DB64
:1041000000BFA5423DDA3E49098889B2FF2902D89D
:104110004FF4806101E04FF4006101FB09F101F10E
:104120000060FEF745F9002508E0039830F8150017
:1041300005EB0A0127F81100681C85B2A542F4DBE3
:104140002F49098889B2FF2902D84FF4806101E024
:104150004FF40061019101EBD171C1F34F02284985
:10416000098889B2FF2902D84FF4806101E04FF439
:10417000006101FB09F101F10060394600F042F8ED
:1041800004E022464046039900F03CF8A64200D1E4
:104190002BE009F101094FF0000A039800EB4400FD
:1041A0000390A044301B86B21549098889B2FF29C3
:1041B00002D84FF4806101E04FF4006101EBD1714E
:1041C000B6EB610F0FDD0E49098889B2FF2902D8CD
:1041D0004FF4806101E04FF40061084601EBD071BB
:1041E000C1F34F0400E034465BE700BFFEF720F95F
:1041F000384606F0D1FAFFF761FA00BF0EE700007B
:10420000E0F7FF1F2DE9F04105460E461746002452
:1042100007E036F814102846FEF714F9AD1C601CB0
:1042200084B2BC42F5DBBDE8F081704710B5C8220E
:1042300002490348FFF7DAFE10BD0000581B0020BA
:1042400028FC000810B5142202490348FFF7CEFEEF
:1042500010BD0000301B002000FC00080749098841
:10426000322904DA0649054A1288885C05E00021F3
:10427000024A118002491288885C70477A00002047
:10428000AF1A0020064A1278521CD1B2322902DA43
:10429000044A505C02E00021024A505C7047000072
:1042A0007A000020AF1A002010B500F001F810BD10
:1042B0000CB50020019000903348006840F4803035
:1042C0003149086000BF3048006800F400300090B9
:1042D0000198401C0190009818B90198B0F5A06FA2
:1042E000F1D12948006800F4003010B1012000909D
:1042F00001E0002000900098012843D12348006885
:1043000040F01000214908600846006820F00300D2
:1043100008600846006840F0020008601A484068DB
:10432000194948600846406848600846406840F4BB
:10433000806048600846406820F47C104860084669
:10434000406840F4E81048600846006840F080701B
:10435000086000BF0C48006800F000700028F9D029
:104360000948406820F00300074948600846406853
:1043700040F00200486000BF0348406800F00C00B5
:104380000828F9D10CBD00000010024000200240B6
:1043900030B502460020012005E00024134B23F82D
:1043A0001040431C98B26428F7DB00201AE000EBB1
:1043B00040035B1CD35C00EB4004145D43EA04241F
:1043C000022303EB4005094B23F8154000EB4003A3
:1043D0009B1CD45C032303EB4005044B23F81540DE
:1043E000431C98B28842E2DB30BD0000581B00201D
:1043F0001CB5FEF70FFE2C480188142004F058FA73
:10440000642002F021FF28484188152004F050FA6A
:10441000642002F019FF24488188162004F048FA2D
:10442000642002F011FF2048C188172004F040FAF0
:10443000642002F009FF1C480189182004F038FAB2
:10444000642002F001FF18488189192004F030FA35
:10445000642002F0F9FE1448C1891A2004F028FAF9
:10446000642002F0F1FE1048018A1B2004F020FABB
:10447000642002F0E9FE0C48418A1C2004F018FA7E
:10448000642002F0E1FE09A103C9CDE9000106485C
:10449000007D8DF8070008216846FEF767FC642060
:1044A00002F0D2FE1CBD0000301B00205AA5058280
:1044B000100900000149088570470000301B0020EA
:1044C00010B50146002000BF07E00C5C00F1B4020B
:1044D000034B23F81240421C90B21028F5DB10BDAC
:1044E000581B002000B589B0142104A8FCF739FA44
:1044F0000020039014209649487107219448FEF744
:1045000035FC142002F084FE03A904A8FEF70EFC7B
:104510009DF8150014280BD1BDF80C00092807D10F
:104520009DF818009DF8171040EA0120894908807D
:104530000020039015208649487107218448FEF722
:1045400015FC142002F064FE03A904A8FEF7EEFB9C
:104550009DF8150015280BD1BDF80C00092807D1CE
:104560009DF818009DF8171040EA0120794948800D
:104570000020039016207649487107217448FEF701
:10458000F5FB142002F044FE03A904A8FEF7CEFBBD
:104590009DF8150016280BD1BDF80C00092807D18D
:1045A0009DF818009DF8171040EA0120694988809D
:1045B0000020039017206649487107216448FEF7E0
:1045C000D5FB142002F024FE03A904A8FEF7AEFBDD
:1045D0009DF8150017280BD1BDF80C00092807D14C
:1045E0009DF818009DF8171040EA01205949C8802D
:1045F0000020039018205649487107215448FEF7BF
:10460000B5FB142002F004FE03A904A8FEF78EFBFC
:104610009DF8150018280BD1BDF80C00092807D10A
:104620009DF818009DF8171040EA012049490881BB
:104630000020039019204649487107214448FEF79D
:1046400095FB142002F0E4FD03A904A8FEF76EFB1D
:104650009DF8150019280BD1BDF80C00092807D1C9
:104660009DF818009DF8171040EA0120394988810B
:10467000002003901A203649487107213448FEF77C
:1046800075FB142002F0C4FD03A904A8FEF74EFB3D
:104690009DF815001A280BD1BDF80C00092807D188
:1046A0009DF818009DF8171040EA01202949C8819B
:1046B000002003901B202649487107212448FEF75B
:1046C00055FB142002F0A4FD03A904A8FEF72EFB5D
:1046D0009DF815001B280BD1BDF80C00092807D147
:1046E0009DF818009DF8171040EA0120194908822A
:1046F000002003901C201649487107211448FEF73A
:1047000035FB142002F084FD03A904A8FEF70EFB7C
:104710009DF815001C280BD1BDF80C00092807D105
:104720009DF818009DF8171040EA012009494882B9
:10473000FFF788FD002000900190029006208DF880
:1047400000006946072008F0C5FD09B000BD000063
:1047500066010020301B00200146002000BF04E05D
:104760000A5C034B1A54421C90B20628F8DB7047CF
:104770003000002010B5044640F2B452122100204F
:1047800001F08CF840F2B4521221012001F086F8B9
:1047900040F2B4521221022001F080F810BD000056
:1047A000FEF751FB4FF47A7002F032FD00BF07486C
:1047B000006800F4E06006490843001D03490860F2
:1047C000BFF3408F00BF00BFFEE700000CED00E02C
:1047D0000000FA0510B500F05BF806F0A3F910BD73
:1047E000042808D14FF0E021096941F004014FF09D
:1047F000E022116107E04FF0E021096921F0040196
:104800004FF0E0221161704710B5002400BF20E096
:1048100004EB44001B4901EBC0008068B8B104EB15
:10482000440001EBC0008068401E04EB4401154ABF
:1048300002EBC101886004EB4400114601EBC000AB
:10484000806820B94FF00041204600F08FF9601CCD
:10485000C4B2202CDCDB0C48007870B10B48008817
:10486000401C0A49088008460088B0F5FA6F07DB4B
:1048700000200880FEF722FF02E0002003490880A4
:1048800010BD0000141E002034010020B4010020DF
:1048900010B50748006840F4E020054908604FF46F
:1048A000A060FEF75DFEFDF77BF9FFF7FFFA10BD94
:1048B00024ED00E010B51348006840F001001149F4
:1048C000086008464068104908400E49486008469C
:1048D00000680E4908400B4908600846006820F44B
:1048E000802008600846406820F4FE0048604FF4CD
:1048F0001F008860FFF7D8FC4FF000600449086093
:1049000010BD0000001002400000FFF8FFFFF6FE9F
:1049100008ED00E010B50121054800F08CF828B141
:104920000121034800F078F802F076FE10BD000087
:104930000004004010B50121064800F07CF838B1B1
:104940000121044800F068F8FEF75CF8FFF71CFA54
:1049500010BD0000000800401FB501210220FEF735
:10496000E3FE6320ADF808004720ADF80400002006
:10497000ADF80A00ADF8060001A90E4800F076F87F
:10498000012211460B4800F067F81D208DF8000049
:1049900000208DF8010003208DF8020001208DF821
:1049A00003006846FEF7A4FD0121024800F037F835
:1049B0001FBD0000000400401FB501210420FEF7C8
:1049C000B3FE6320ADF8080041F61F40ADF80400C7
:1049D0000020ADF80A00ADF8060001A90D4800F06E
:1049E00045F8012211460B4800F036F81E208DF8DC
:1049F000000000208DF8010003208DF80200012046
:104A00008DF803006846FEF773FD0121014800F0B0
:104A100006F81FBD00080040CA430282704721B15A
:104A2000028842F00102028004E002884FF6FE7321
:104A30001A400280704730B502460020002300244F
:104A4000158A05EA0103958905EA010413B10CB141
:104A5000012000E0002030BD1AB183890B4383811F
:104A600002E083898B438381704700000022028823
:104A70001D4B98420ED01D4B98420BD0B0F1804F89
:104A800008D01B4B984205D01A4B984202D01A4BC3
:104A9000984204D14FF68F731A404B881A43174B34
:104AA000984207D0164B984204D04FF6FF431A4065
:104AB000CB881A4302808B8883850B8803850A4B39
:104AC00098420BD0094B984208D00E4B984205D023
:104AD0000D4B984202D00D4B984201D10B7A0386C0
:104AE0000123838270470000002C01400034014004
:104AF0000004004000080040000C0040001000408E
:104B000000140040004001400044014000480140C2
:104B100070B520242025FBF7ABFB0646104805683E
:104B200000200F49096801EB41010E4A02EBC10167
:104B3000C8600B49087800F01DF93046FBF79CFB74
:104B400000F0A8FA00BF084800680028FBD004481D
:104B5000006800EB4000034901EBC000C06870BD75
:104B600020010020141E0020380100202DE9F04112
:104B700004460E46202C01D3BDE8F0812025FBF72A
:104B800077FB074604EB44001F4901EBC000406877
:104B9000A8B104EB440001EBC000C068304304EB53
:104BA0004401194A02EBC101C86004EB44001146FC
:104BB00001EBC000006910B9204600F0B1F838469A
:104BC000FBF75AFB1148007800B1D5E7FBF750FB23
:104BD00007460F480068FBF78EFB05460D48006846
:104BE00085420CD2202D0AD20A48056005EB45000B
:104BF000054901EBC00008490860FBF758FB38463F
:104C0000FBF73AFB00BFB7E7141E00203401002079
:104C100038010020200100202801002070B5044642
:104C2000202C01D3002070BDFBF722FB054604EBCE
:104C30004400094901EBC0000069401C04EB440139
:104C4000054A02EBC1010861E0B200F093F8284682
:104C5000FBF712FB0120E6E7141E002070B50446A6
:104C6000202C01D3002070BDFBF702FB054604EBAE
:104C70004400104901EBC000006958B104EB440046
:104C800001EBC0000069401E04EB4401094A02EB3D
:104C9000C101086104EB4400064901EBC000006952
:104CA00010B9E0B200F03CF82846FBF7E5FA012025
:104CB000D9E70000141E00202DE9F04104460D46FE
:104CC000202C02D30020BDE8F0812026FBF7D0FA8B
:104CD000074604EB4400114901EBC0004068A8B14D
:104CE00004EB440001EBC000C068284304EB44011E
:104CF0000A4A02EBC101C86004EB4400114601EB13
:104D0000C000006910B9204600F00AF83846FBF7E9
:104D1000B3FA00F0BFF90120D5E70000141E00200F
:104D200070B50446202C01D3002070BDFBF7A0FA1B
:104D3000054604EB44000D4901EBC000406878B122
:104D40004FF00040E0400A490968084308490860FC
:104D500002F046FD04EB4401044A02EBC101486144
:104D60002846FBF789FA0120DFE70000141E002027
:104D70003801002070B50446202C01D3002070BDFE
:104D8000FBF776FA054604EB4400094901EBC00045
:104D9000406838B14FF00040E0400649096881435F
:104DA000044801602846FBF767FA0120E7E70000A6
:104DB000141E0020380100202DE9F04F91B0AFA162
:104DC00003C9CDE9090124208DF82900072109A88C
:104DD000FDF7CCFF142002F01BFA0BA90CA8FDF77D
:104DE000A5FF9DF83500242809D1BDF82C0009281D
:104DF00005D19DF838009DF8371040EA01242520A0
:104E00008DF82900072109A8FDF7B0FF142002F052
:104E1000FFF90BA90CA8FDF789FF9DF8350025289F
:104E200009D1BDF82C00092805D19DF838009DF85E
:104E3000371040EA012526208DF82900072109A80E
:104E4000FDF794FF142002F0E3F90BA90CA8FDF77D
:104E50006DFF9DF83500262809D1BDF82C000928E2
:104E600005D19DF838009DF8371040EA012627202B
:104E70008DF82900072109A8FDF778FF142002F01A
:104E8000C7F90BA90CA8FDF751FF9DF8350027289D
:104E900009D1BDF82C00092805D19DF838009DF8EE
:104EA000371040EA012728208DF82900072109A89A
:104EB000FDF75CFF142002F0ABF90BA90CA8FDF77D
:104EC00035FF9DF83500282809D1BDF82C000928A8
:104ED00005D19DF838009DF8371040EA01282920B7
:104EE0008DF82900072109A8FDF740FF142002F0E2
:104EF0008FF90BA90CA8FDF719FF9DF8350029289B
:104F000009D1BDF82C00092805D19DF838009DF87D
:104F1000371040EA0129642094FBF0F100FB1140B6
:104F20000A2190FBF1F201FB1200642194FBF1F2E3
:104F300001FB12410A2291FBF2F140EA01101FFA33
:104F400080FA642095FBF0F100FB11500A2190FBE0
:104F5000F1F201FB1200642195FBF1F201FB125109
:104F60000A2291FBF2F140EA01101FFA80FB642053
:104F700096FBF0F100FB11600A2190FBF1F201FBBE
:104F80001200642196FBF1F201FB12610A2291FBEF
:104F9000F2F140EA011080B20890642097FBF0F132
:104FA00000FB11700A2190FBF1F201FB1200642159
:104FB00097FBF1F201FB12710A2291FBF2F140EA38
:104FC000011080B20790642098FBF0F100FB118083
:104FD0000A2190FBF1F201FB1200642198FBF1F22F
:104FE00001FB12810A2291FBF2F140EA011080B22A
:104FF0000690642099FBF0F100FB11900A2190FBD0
:10500000F1F201FB1200642199FBF1F201FB129114
:105010000A2291FBF2F140EA011080B2059019A337
:10502000D3E901021968DB68CDE90323CDE901105A
:105030000AF0FF008DF80A000BF0FF008DF80B005E
:105040000898C0B28DF80C000798C0B28DF80E0019
:105050000698C0B28DF80F000598C0B28DF8100008
:10506000012002F0D5F80D2101A8FDF77FFE0120F7
:1050700002F0CEF811B0BDE8F08F00005AA504830D
:10508000000001005AA50A801F5A1801220014408E
:105090000000000070B52024FBF7EAF805460D4833
:1050A0000068FBF728F904460B48006884420CD0DE
:1050B000202C0AD20848046004EB4400074901EBA5
:1050C000C00007490860FBF7EBF82846FBF7D4F867
:1050D00070BD00003801002020010020141E0020B7
:1050E0002801002010B5002440F225512C4800F082
:1050F0000CF950B300202B4908702948001D008886
:10510000C4B2294800783A2807DA2748017800789D
:10511000401C254A107025484454254800883228F0
:1051200014DA244824490988445421480088401C42
:105130001F49088020480088401C1F4908800846F5
:105140000088322807DB0020088004E040F2255167
:10515000134800F069F840F22441114800F0D5F8F6
:1051600088B101200F4908700D4800880E49087069
:105170000B48001D008808700020087001210F48AE
:105180000078FFF7F3FC40F22771054800F0BDF806
:1051900020B140F22771024800F046F810BD00002F
:1051A000003801408200002088000020E11A002021
:1051B00080000020AF1A00207C0000207800002032
:1051C00010B540F22551144800F09FF880B1124804
:1051D00000F056F9C4B211480078642808DA104883
:1051E0000E49097844540D480078401C0B4908705A
:1051F00040F22441084800F088F860B10648008871
:10520000C4B20548001D0088C4B20024012105482D
:105210000078FFF7ABFC10BD004400402E000020DA
:10522000D01900202D00002001F40072B2F5007F9B
:1052300000D100BFCA430280704721B1828942F485
:105240000052828104E082894DF6FF731A40828108
:105250007047000010B504462048844209D101215E
:105260008803FEF791FA00214FF48040FEF78CFA94
:1052700032E01B48844209D101214804FEF764FA58
:1052800000214FF40030FEF75FFA25E01548844214
:1052900009D101218804FEF757FA00214FF480203C
:1052A000FEF752FA18E01048844209D10121C804DF
:1052B000FEF74AFA00214FF40020FEF745FA0BE012
:1052C0000A48844208D101210805FEF73DFA002171
:1052D0004FF48010FEF738FA10BD0000003801408E
:1052E0000044004000480040004C00400050004096
:1052F00002460020B1F5007F00D100BF13880B40AB
:105300000BB1012000E00020704770B50246002478
:1053100000230025002040F66A16B14200D100BFEC
:10532000C1F3421501F01F03012606FA03F3012D14
:1053300002D19689334006E0022D02D1168A33400D
:1053400001E0968A33400C12012606FA04F416880E
:10535000344013B10CB1012000E0002070BDF0B565
:105360000346002400260025002040F66A17B942B3
:1053700000D100BF1846C1F3421401F01F060127F7
:1053800007FA06F5012C01D10C3004E0022C01D102
:10539000103000E014301AB107682F43076002E0B4
:1053A0000768AF430760F0BD2DE9F04786B00546BA
:1053B0000E460024A24600BFA1460027B08900B1D6
:1053C00000BF2F462C8A4CF6FF700440F08804433F
:1053D0002C82AC894EF6F3100440B0883189084322
:1053E000718908430443AC81AC8A4FF6FF40044006
:1053F000B0890443AC8201A8FEF7D6F91F48874262
:1054000002D1DDF810A001E0DDF80CA0A88900F4BD
:10541000004040B10AEBCA0000EB0A1031684900B5
:10542000B0FBF1F807E00AEBCA0000EB0A103168A4
:105430008900B0FBF1F86420B8FBF0F0040120090A
:10544000642101FB1089A88900F4004040B132209A
:1054500000EBC900B0FBF1F000F00700044308E0E6
:10546000322000EB09106421B0FBF1F000F00F00D6
:1054700004432C8106B0BDE8F087000000380140ED
:1054800001468888C0F308007047C1F30802828093
:105490007047000010B50020002100BF05E0002289
:1054A0001A4B23F81020421C90B21428F7DB01227B
:1054B000164B5A800222DA8003225A810422DA81B2
:1054C00005225A820622DA8200201CE0022112E024
:1054D0000E4B421C13F812400D4A4B1C12F81320BD
:1054E000944206D1094A32F81020521C074B23F887
:1054F00010208A1C91B2064A4B1C12F81320002A75
:10550000E6D1821C90B21428E0DB10BD50000020D0
:10551000581B002070B504460D461346002100229A
:1055200000BF20E04E00134830F81600A04218D10A
:10553000012000EB41060F4810F81620012D01D183
:1055400042F48072012B02D142F4007203E0022B7C
:1055500001D142F48062012000EB4106054820F8A9
:105560001620481C81B24E00024830F81600002870
:10557000D8D170BD581B0020FDF7FCFF10B50146C7
:105580000022002000BF1BE000230F4C236001F02D
:1055900080031BB10123241F236003E000230A4C76
:1055A000241F23604B06190E0123074C236043067A
:1055B000180E064BD3F818310343D8B2531CDAB295
:1055C000082AE1DB10BD00009481214200802142C5
:1055D0001FB52020ADF80C0001208DF80E00102022
:1055E0008DF80F0003A91A48FCF78CFF20211848FA
:1055F000FDF75CF81020ADF80C0003208DF80E00CC
:1056000048208DF80F0003A91148FCF77BFF042107
:105610000220FCF757FF1020019000208DF80800B1
:105620000C208DF8090001208DF80A0001A8FCF774
:1056300075FE0A208DF8000002208DF801008DF81B
:10564000020001208DF803006846FDF751FF1FBDE1
:105650000010014010B520210C48FDF727F84FF449
:10566000FA70FCF7F7FC20210848FDF721F8C82064
:10567000FCF7F0FC02E0C820FCF7ECFC2E20FEF763
:10568000EBFA00F001000028F5D010BD0010014039
:1056900010B500248021002000F0B2F80A20FCF7A9
:1056A000D9FC06221749092000F040F900BF0BE0A1
:1056B00002221E21204600F0D3F802221F2120469C
:1056C00000F0CEF8601CC4B2082CF1DB4FF4FA6194
:1056D000192000F0ADF808211B2000F091F8C0213E
:1056E000162000F08DF80721182000F089F81F22FD
:1056F0002C21002000F0B4F804222C21012000F01D
:10570000AFF810BD8900002010B5FEF77DFBFFF754
:105710005FFFFDF7B9FCFFF79DFFFFF7B9FF002022
:10572000FFF728F810BD00002DE9F04707460D46A9
:10573000904624213846FEF7D9FA0646B146C6F30C
:105740000A0610212D48FCF7B1FF3046FEF742FB58
:10575000102101EB4711C9B241F00400FEF72AFB0A
:1057600006EB0800B0F5006F0ADA002405E015F832
:10577000010BFEF71FFB601C84B24445F7DB28E0F9
:10578000C6F5006086B2002405E015F8010BFEF7AF
:1057900011FB601C84B2B442F7DB10211748FCF700
:1057A00087FF10211548FCF781FF0020FEF712FB50
:1057B000102101EB4711C9B241F00400FEF7FAFADB
:1057C00005E015F8010BFEF7F5FA601C84B24445BC
:1057D000F7DB10210948FCF76BFF09EB08001FFA03
:1057E00080F94A462421384600F058F82022012149
:1057F000384600F035F8BDE8F087000000080140A9
:1058000070B505460C4610210848FCF74FFF2846A6
:10581000FEF7E0FA0520FEF7CDFA2046FEF7CAFAB9
:1058200010210248FCF744FF70BD00000008014051
:1058300070B505460C4610210848FCF737FF28468E
:10584000FEF7C8FA0620FEF7B5FA2046FEF7C2FAC0
:1058500010210248FCF72CFF70BD00000008014039
:1058600070B504460D46164610210B48FCF71EFF86
:105870002846FEF7AFFA082101EB4411C9B241F006
:105880000500FEF797FA3046FEF794FA1021024819
:10589000FCF70EFF70BD00000008014070B5044623
:1058A0000D46164610210B48FCF700FF2846FEF770
:1058B00091FA082101EB4411C9B241F00600FEF74C
:1058C00079FA3046FEF786FA10210248FCF7F0FE1E
:1058D00070BD00000008014070B505460E46144634
:1058E00010211148FCF7E2FE3046FEF773FA08215A
:1058F00001EB4511C9B241F00700FEF75BFA14F85D
:10590000010BFEF757FA14F8010BFEF753FA14F8DF
:10591000010BFEF74FFA14F8010BFEF74BFA1021BA
:105920000148FCF7C5FE70BD000801402DE9F041BB
:1059300007460C46154610210C48FCF7B7FE3846C2
:10594000FEF748FA0420FEF735FA002605E014F8C1
:10595000010BFEF72FFA701C86B2AE42F7DB102166
:105960000248FCF7A5FEBDE8F081000000080140F8
:10597000490050EAC12018BF04204A0D18BF40F06A
:10598000010040F2FF72B2EB515F08BF40F002002D
:10599000012808BF052070472DE9F0414F1E00EB9C
:1059A000C7010446D1E9000115461E4637F006023C
:1059B0000DD02A46334608F077FD7F1E04EBC7035F
:1059C000D3E9002308F098FA37F00602F1D1022F4C
:1059D00025D0042F13D0062F18BFBDE8F0812A462A
:1059E000334608F061FDD4E90A2308F085FA2A4617
:1059F000334608F059FDD4E9082308F07DFA2A4619
:105A0000334608F051FDD4E9062308F075FA2A461A
:105A1000334608F049FDD4E9042308F06DFA2A461C
:105A2000334608F041FDD4E9022308F065FA2A461E
:105A3000334608F039FDD4E90023BDE8F04108F011
:105A40005BBA0000002213461046014908F010BB63
:105A50000000F03F08F050BA0022134610461146ED
:105A600008F006BB40F2013200204FF0E04109F09F
:105A70002FB90000024A0020110709F029B90000DF
:105A800001FDFFFF30380A2801D2012070470020B5
:105A90007047014600BF00207047704710B50246AE
:105AA000002309E006480068007810700448006888
:105AB000401C034C20605B1C8B42F3DB084610BD8E
:105AC000CC01002070B505460E46AC6806B970BD25
:105AD0000CB9AE6009E000E0246814B12068002829
